{
  "_format": "hh-sol-artifact-1",
  "contractName": "SwiftSwap",
  "sourceName": "contracts/SwiftSwap.sol",
  "abi": [
    {
      "inputs": [],
      "name": "InvalidInitialization",
      "type": "error"
    },
    {
      "inputs": [],
      "name": "NotInitializing",
      "type": "error"
    },
    {
      "anonymous": false,
      "inputs": [
        {
          "indexed": true,
          "internalType": "address",
          "name": "sender",
          "type": "address"
        },
        {
          "indexed": true,
          "internalType": "address",
          "name": "tokenIn",
          "type": "address"
        },
        {
          "indexed": true,
          "internalType": "address",
          "name": "tokenOut",
          "type": "address"
        },
        {
          "indexed": false,
          "internalType": "uint256",
          "name": "amountIn",
          "type": "uint256"
        },
        {
          "indexed": false,
          "internalType": "uint256",
          "name": "amountOut",
          "type": "uint256"
        },
        {
          "indexed": false,
          "internalType": "uint256",
          "name": "gasEstimate",
          "type": "uint256"
        }
      ],
      "name": "ExactInQuote",
      "type": "event"
    },
    {
      "anonymous": false,
      "inputs": [
        {
          "indexed": true,
          "internalType": "address",
          "name": "sender",
          "type": "address"
        },
        {
          "indexed": true,
          "internalType": "address",
          "name": "tokenIn",
          "type": "address"
        },
        {
          "indexed": true,
          "internalType": "address",
          "name": "tokenOut",
          "type": "address"
        },
        {
          "indexed": false,
          "internalType": "uint256",
          "name": "amountIn",
          "type": "uint256"
        },
        {
          "indexed": false,
          "internalType": "uint256",
          "name": "amountOut",
          "type": "uint256"
        },
        {
          "indexed": false,
          "internalType": "uint256",
          "name": "gasEstimate",
          "type": "uint256"
        }
      ],
      "name": "ExactOutQuote",
      "type": "event"
    },
    {
      "anonymous": false,
      "inputs": [
        {
          "indexed": false,
          "internalType": "uint64",
          "name": "version",
          "type": "uint64"
        }
      ],
      "name": "Initialized",
      "type": "event"
    },
    {
      "anonymous": false,
      "inputs": [
        {
          "indexed": true,
          "internalType": "address",
          "name": "sender",
          "type": "address"
        },
        {
          "indexed": true,
          "internalType": "address",
          "name": "tokenIn",
          "type": "address"
        },
        {
          "indexed": true,
          "internalType": "address",
          "name": "tokenOut",
          "type": "address"
        },
        {
          "indexed": false,
          "internalType": "uint256",
          "name": "amountIn",
          "type": "uint256"
        },
        {
          "indexed": false,
          "internalType": "uint256",
          "name": "amountOut",
          "type": "uint256"
        }
      ],
      "name": "Swap",
      "type": "event"
    },
    {
      "inputs": [
        {
          "internalType": "address",
          "name": "tokenIn",
          "type": "address"
        },
        {
          "internalType": "address",
          "name": "tokenOut",
          "type": "address"
        },
        {
          "internalType": "uint256",
          "name": "amountIn",
          "type": "uint256"
        }
      ],
      "name": "getExactInQuote",
      "outputs": [
        {
          "internalType": "uint256",
          "name": "",
          "type": "uint256"
        },
        {
          "internalType": "uint256",
          "name": "",
          "type": "uint256"
        }
      ],
      "stateMutability": "nonpayable",
      "type": "function"
    },
    {
      "inputs": [
        {
          "internalType": "address",
          "name": "tokenIn",
          "type": "address"
        },
        {
          "internalType": "address",
          "name": "tokenOut",
          "type": "address"
        },
        {
          "internalType": "uint256",
          "name": "amountOut",
          "type": "uint256"
        }
      ],
      "name": "getExactOutQuote",
      "outputs": [
        {
          "internalType": "uint256",
          "name": "",
          "type": "uint256"
        },
        {
          "internalType": "uint256",
          "name": "",
          "type": "uint256"
        }
      ],
      "stateMutability": "nonpayable",
      "type": "function"
    },
    {
      "inputs": [
        {
          "internalType": "contract ISwapRouter02",
          "name": "_swapRouter",
          "type": "address"
        },
        {
          "internalType": "contract IQuoterV2",
          "name": "_quoter",
          "type": "address"
        }
      ],
      "name": "initialize",
      "outputs": [],
      "stateMutability": "nonpayable",
      "type": "function"
    },
    {
      "inputs": [],
      "name": "poolFee",
      "outputs": [
        {
          "internalType": "uint24",
          "name": "",
          "type": "uint24"
        }
      ],
      "stateMutability": "view",
      "type": "function"
    },
    {
      "inputs": [],
      "name": "quoter",
      "outputs": [
        {
          "internalType": "contract IQuoterV2",
          "name": "",
          "type": "address"
        }
      ],
      "stateMutability": "view",
      "type": "function"
    },
    {
      "inputs": [
        {
          "internalType": "address",
          "name": "tokenIn",
          "type": "address"
        },
        {
          "internalType": "address",
          "name": "tokenOut",
          "type": "address"
        },
        {
          "internalType": "uint256",
          "name": "amountIn",
          "type": "uint256"
        },
        {
          "internalType": "uint256",
          "name": "amountOutMinimum",
          "type": "uint256"
        }
      ],
      "name": "swapExactIn",
      "outputs": [],
      "stateMutability": "nonpayable",
      "type": "function"
    },
    {
      "inputs": [
        {
          "internalType": "address",
          "name": "tokenIn",
          "type": "address"
        },
        {
          "internalType": "address",
          "name": "tokenOut",
          "type": "address"
        },
        {
          "internalType": "uint256",
          "name": "amountOut",
          "type": "uint256"
        },
        {
          "internalType": "uint256",
          "name": "amountInMaximum",
          "type": "uint256"
        }
      ],
      "name": "swapExactOut",
      "outputs": [],
      "stateMutability": "nonpayable",
      "type": "function"
    },
    {
      "inputs": [],
      "name": "swapRouter",
      "outputs": [
        {
          "internalType": "contract ISwapRouter02",
          "name": "",
          "type": "address"
        }
      ],
      "stateMutability": "view",
      "type": "function"
    }
  ],
  "bytecode": "0x608060405234801561001057600080fd5b50611144806100206000396000f3fe608060405234801561001057600080fd5b50600436106100885760003560e01c8063b277f7441161005b578063b277f744146100ff578063c31c9c0714610112578063c6bbd5a714610157578063faf725671461017757600080fd5b8063089fe6aa1461008d57806310b84623146100af578063485cc955146100c45780637030b2f2146100d7575b600080fd5b610096610bb881565b60405162ffffff90911681526020015b60405180910390f35b6100c26100bd366004610e81565b61018a565b005b6100c26100d2366004610ec7565b610390565b6100ea6100e5366004610f00565b61055d565b604080519283526020830191909152016100a6565b6100ea61010d366004610f00565b61069e565b6000546101329073ffffffffffffffffffffffffffffffffffffffff1681565b60405173ffffffffffffffffffffffffffffffffffffffff90911681526020016100a6565b6001546101329073ffffffffffffffffffffffffffffffffffffffff1681565b6100c2610185366004610e81565b6107cf565b600082116101f9576040517f08c379a000000000000000000000000000000000000000000000000000000000815260206004820152601d60248201527f616d6f756e74206d7573742062652067726561746572207468616e203000000060448201526064015b60405180910390fd5b61020584333085610a0a565b60005461022a90859073ffffffffffffffffffffffffffffffffffffffff1684610b83565b6040805160e08101825273ffffffffffffffffffffffffffffffffffffffff80871682528581166020830152610bb8828401523360608301526080820185905260a08201849052600060c08301819052805493517f04e45aaf000000000000000000000000000000000000000000000000000000008152929390929116906304e45aaf906102bc908590600401610f41565b6020604051808303816000875af11580156102db573d6000803e3d6000fd5b505050506040513d601f19601f820116820180604052508101906102ff9190610fb7565b90508473ffffffffffffffffffffffffffffffffffffffff168673ffffffffffffffffffffffffffffffffffffffff163373ffffffffffffffffffffffffffffffffffffffff167fcd3829a3813dc3cdd188fd3d01dcf3268c16be2fdd2dd21d0665418816e460628785604051610380929190918252602082015260400190565b60405180910390a4505050505050565b7ff0c57e16840df040f15088dc2f81fe391c3923bec73e23a9662efc9c229c6a00805468010000000000000000810460ff16159067ffffffffffffffff166000811580156103db5750825b905060008267ffffffffffffffff1660011480156103f85750303b155b905081158015610406575080155b1561043d576040517ff92ee8a900000000000000000000000000000000000000000000000000000000815260040160405180910390fd5b84547fffffffffffffffffffffffffffffffffffffffffffffffff0000000000000000166001178555831561049e5784547fffffffffffffffffffffffffffffffffffffffffffffff00ffffffffffffffff16680100000000000000001785555b6000805473ffffffffffffffffffffffffffffffffffffffff808a167fffffffffffffffffffffffff000000000000000000000000000000000000000092831617909255600180549289169290911691909117905583156105545784547fffffffffffffffffffffffffffffffffffffffffffffff00ffffffffffffffff168555604051600181527fc7f505b2f371ae2175ee4913f4499e1f2633a7b5936321eed1cdaeb6115181d29060200160405180910390a15b50505050505050565b6001546040805160a08101825273ffffffffffffffffffffffffffffffffffffffff86811682528581166020830152818301859052610bb8606083015260006080830181905292517fbd21704a00000000000000000000000000000000000000000000000000000000815292938493849384939092169163bd21704a916105e79190600401610fd0565b6080604051808303816000875af1158015610606573d6000803e3d6000fd5b505050506040513d601f19601f8201168201806040525081019061062a919061102a565b60408051858152602081018b905290810182905293955093505073ffffffffffffffffffffffffffffffffffffffff80891692908a16915033907f9262c59322202ecb1f67f03aa6458b18c7746a67331ccea5fad4e5e2eb5ae956906060015b60405180910390a490969095509350505050565b6001546040805160a08101825273ffffffffffffffffffffffffffffffffffffffff86811682528581166020830152818301859052610bb8606083015260006080830181905292517fc6a5026a00000000000000000000000000000000000000000000000000000000815292938493849384939092169163c6a5026a916107289190600401610fd0565b6080604051808303816000875af1158015610747573d6000803e3d6000fd5b505050506040513d601f19601f8201168201806040525081019061076b919061102a565b604080518a81526020810186905290810182905293955093505073ffffffffffffffffffffffffffffffffffffffff80891692908a16915033907f216cc259f867e93f4e77ff6109f056d34d7849cf018453ac724526734a7538469060600161068a565b6000821180156107df5750600081115b61086b576040517f08c379a000000000000000000000000000000000000000000000000000000000815260206004820152602360248201527f626f746820616d6f756e7473206d75737420626520677265617465722074686160448201527f6e2030000000000000000000000000000000000000000000000000000000000060648201526084016101f0565b61087784333084610a0a565b60005461089c90859073ffffffffffffffffffffffffffffffffffffffff1683610b83565b6040805160e08101825273ffffffffffffffffffffffffffffffffffffffff80871682528581166020830152610bb8828401523360608301526080820185905260a08201849052600060c08301819052805493517f5023b4df00000000000000000000000000000000000000000000000000000000815292939092911690635023b4df9061092e908590600401610f41565b6020604051808303816000875af115801561094d573d6000803e3d6000fd5b505050506040513d601f19601f820116820180604052508101906109719190610fb7565b9050828110156109b557600080546109a191889173ffffffffffffffffffffffffffffffffffffffff1690610b83565b6109b586336109b0848761107c565b610cf3565b604080518281526020810186905273ffffffffffffffffffffffffffffffffffffffff808816929089169133917fcd3829a3813dc3cdd188fd3d01dcf3268c16be2fdd2dd21d0665418816e460629101610380565b6040805173ffffffffffffffffffffffffffffffffffffffff85811660248301528481166044830152606480830185905283518084039091018152608490920183526020820180517bffffffffffffffffffffffffffffffffffffffffffffffffffffffff167f23b872dd000000000000000000000000000000000000000000000000000000001790529151600092839290881691610aa991906110b6565b6000604051808303816000865af19150503d8060008114610ae6576040519150601f19603f3d011682016040523d82523d6000602084013e610aeb565b606091505b5091509150818015610b15575080511580610b15575080806020019051810190610b1591906110e5565b610b7b576040517f08c379a000000000000000000000000000000000000000000000000000000000815260206004820152600360248201527f535446000000000000000000000000000000000000000000000000000000000060448201526064016101f0565b505050505050565b6040805173ffffffffffffffffffffffffffffffffffffffff8481166024830152604480830185905283518084039091018152606490920183526020820180517bffffffffffffffffffffffffffffffffffffffffffffffffffffffff167f095ea7b3000000000000000000000000000000000000000000000000000000001790529151600092839290871691610c1a91906110b6565b6000604051808303816000865af19150503d8060008114610c57576040519150601f19603f3d011682016040523d82523d6000602084013e610c5c565b606091505b5091509150818015610c86575080511580610c86575080806020019051810190610c8691906110e5565b610cec576040517f08c379a000000000000000000000000000000000000000000000000000000000815260206004820152600260248201527f534100000000000000000000000000000000000000000000000000000000000060448201526064016101f0565b5050505050565b6040805173ffffffffffffffffffffffffffffffffffffffff8481166024830152604480830185905283518084039091018152606490920183526020820180517bffffffffffffffffffffffffffffffffffffffffffffffffffffffff167fa9059cbb000000000000000000000000000000000000000000000000000000001790529151600092839290871691610d8a91906110b6565b6000604051808303816000865af19150503d8060008114610dc7576040519150601f19603f3d011682016040523d82523d6000602084013e610dcc565b606091505b5091509150818015610df6575080511580610df6575080806020019051810190610df691906110e5565b610cec576040517f08c379a000000000000000000000000000000000000000000000000000000000815260206004820152600260248201527f535400000000000000000000000000000000000000000000000000000000000060448201526064016101f0565b73ffffffffffffffffffffffffffffffffffffffff81168114610e7e57600080fd5b50565b60008060008060808587031215610e9757600080fd5b8435610ea281610e5c565b93506020850135610eb281610e5c565b93969395505050506040820135916060013590565b60008060408385031215610eda57600080fd5b8235610ee581610e5c565b91506020830135610ef581610e5c565b809150509250929050565b600080600060608486031215610f1557600080fd5b8335610f2081610e5c565b92506020840135610f3081610e5c565b929592945050506040919091013590565b60e08101610fb1828473ffffffffffffffffffffffffffffffffffffffff80825116835280602083015116602084015262ffffff60408301511660408401528060608301511660608401526080820151608084015260a082015160a08401528060c08301511660c0840152505050565b92915050565b600060208284031215610fc957600080fd5b5051919050565b60a08101610fb1828473ffffffffffffffffffffffffffffffffffffffff8082511683528060208301511660208401526040820151604084015262ffffff6060830151166060840152806080830151166080840152505050565b6000806000806080858703121561104057600080fd5b84519350602085015161105281610e5c565b604086015190935063ffffffff8116811461106c57600080fd5b6060959095015193969295505050565b81810381811115610fb1577f4e487b7100000000000000000000000000000000000000000000000000000000600052601160045260246000fd5b6000825160005b818110156110d757602081860181015185830152016110bd565b506000920191825250919050565b6000602082840312156110f757600080fd5b8151801515811461110757600080fd5b939250505056fea264697066735822122064178b8e56ea8598f5a3f8687f63524684e57c8086067e1cdc58f40129adc38664736f6c63430008180033",
  "linkReferences": {},
  "deployedLinkReferences": {}
}